:10000000FC020400000000000000000000000000EE
:1000100000000000000000000000000000000000E0
:1000200000000000000000000000000000000000D0
:1000300000000000000000000000000000000000C0
:10004000D8020000000000000000000000000000D6
:100050000000000038030000000000000000000065
:100060000000000000000000000000000000000090
:100070000000000000000000000000000000000080
:100080000000000000000000000000000000000070
:100090000000000000000000000000000000000060
:1000A0000000000000000000000000000000000050
:1000B0000000000000000000000000000000000040
:1000C0000000000000000000000000000000000030
:1000D0000000000000000000000000000000000020
:1000E0000000000000000000000000000000000010
:1000F0000000000000000000000000000000000000
:1001000000000000000000000000000000000000EF
:1001100000000000000000000000000000000000DF
:1001200000000000000000000000000000000000CF
:1001300000000000000000000000000000000000BF
:1001400000000000000000000000000000000000AF
:10015000000000000000000000000000000000009F
:10016000000000000000000000000000000000008F
:10017000000000000000000000000000000000007F
:10018000000000000000000000000000000000006F
:10019000000000000000000000000000000000005F
:1001A000000000000000000000000000000000004F
:1001B000000000000000000000000000000000003F
:1001C000000000000000000000000000000000002F
:1001D000000000000000000000000000000000001F
:1001E000000000000000000000000000000000000F
:1001F00000000000000000000000000000000000FF
:1005F8008F802000F0FF200020A0B700000020001E
:1006080034A0B700400020004420B700A403020033
:10061800000000008A1F78008B1F78000A5822000B
:100628000B00200094FF07002800200047582400F2
:100638000E20ED00FEFF3A001020ED00FCFF3A000E
:100648000000000000000000CCFF070056FF070074
:1006580065FF07008D60A800FFFF3700CF05780011
:080668004F057800FFFF370089
:100480000800FA002023200030408800F0FF2F00F1
:1004900010408800F0FF2F0020408800F0FF2F0060
:1004A000004088000C22EF00000028000EA2B700D8
:1004B000BAFF0700823E20000300200050FF070023
:1004C0000002BE00B8FF07004100DE0064004000EB
:1004D0000A01BE000000E900030035000201D0005F
:1004E0008381D200FBFF37000207980013079800B2
:1004F000849FBE000400BE000002EB007BFF0700EB
:100500004F02BE0020079800310798000400BE008B
:100510000E0190009E0190000002EB004AFF0700D0
:100520008001780001027800600047005001D1008E
:10053000C080D300640047003008E1002090E10053
:100540000400310061804100E0004A000001BE006B
:100550000200370003017800840178006100510037
:10056000E0805900A01088000E22A9000DE2A8002A
:100570000F42A8002BFF07002AFF07000080FA00A7
:040580000000060071
:0C039C000071220001002000000006009B
:0803A8004000200000000600E7
:1002240028002000475824000E20ED00FEFF3A006D
:100234001020ED00FCFF3A00000000000000000068
:0402440000000600B0
:100200000000FA00020AB800500088000200B8009E
:1002100081004200032AB800810042000080FA00F9
:0402200000000600D4
:1002EC000000FA0002000700CA0104000000000030
:1002FC000800E20002003A001000070000000600AF
:10030C00811F78000200E20002003D006000100036
:10031C00E08018000600E20002003D0060011100C0
:10032C00E0811900050007004F00E00002003B00CF
:10033C0060001000E08018000000060002000700BA
:10034C000480BE00000006006022B80006022000F7
:10035C000000D0008180D2000482D2008582D200BD
:10036C000000A8000202520083825A0003003B00E6
:10037C000202420083824A000000A1000603E90049
:10038C00F3FF3A00000006000080FA0000000600AF
:100248000000FA000200070072010400000000002C
:100258000800E20002003A00100007000000060053
:10026800839F68000200E20002003D006000100069
:10027800E08018000600E20002003D006001110065
:10028800E0811900050007004F00E00002003B0074
:1002980060001000E0801800000006006022B8002E
:1002A800060220000000D0008180D2000482D20023
:1002B8008582D2000000A8000202520083825A0000
:1002C80003003B000202420083824A000000A100B2
:1002D8000603E900F3FF3A00000006000080FA0078
:0402E800000006000C
:10058400C602A900C642A800C662A900C682A90084
:10059400C6A2A900C6C2A900C6E2A900C702A90052
:0C05A400C722A900C742A9000000060001
:1003B0001021EF00608929000CA1B70000C2B30032
:1003C000804078000011200090C0680000C3B30096
:1003D00080C060000011200090C068000011200063
:1003E0000148780011E1A8008CC0A80000000600B8
:1003F000B0FF2F00A8A2B700A1E2A900A1A2A80007
:1004000001158000F0CF2F0000806000A0A2B7008F
:10041000002A200090407800F0C1B30080C0600046
:10042000002A200001487800A042A9001115800090
:10043000F0FF210000806000A2A2B700202A200067
:100440009040780030CCB30080C06000202A2000AB
:100450000148780020002000A6A2B700A1E2A80071
:040460000000060092
:100748000A8020000B002000030009000B1D780020
:040758000000060097
:100670003400F8003600F800801F780020002000C9
:100680000C000900B01F78008A1F78000114800058
:100690004908DE0080007800CA02AA00CA62A900E8
:1006A000CA82A900CAA2A900CAC2A900CAE2A900B6
:1006B000CB02A900CB22A900CB42A9006100E10036
:1006C00001003500CA62A8006208E100010035009F
:1006D000CA82A8006308E10001003500CAA2A80090
:1006E0006408E10001003500CAC2A8006508E10005
:1006F00001003500CAE2A8006608E10001003500EB
:10070000CB02A8006708E10001003500CB22A80059
:100710006808E10001003500CB42A8008560A9000F
:10072000010578004FFF07004F057800A001200069
:100730000C0009004F1078004F0078003600F900D7
:080740003400F900004006003E
:100464000000FA000F02AF0001003700FDFF370063
:0C0474008A1088000080FA0000000600DA
:1005B0003400F8003600F800801F7800200020008A
:1005C0000C000900B01F780084C0A900A002A90097
:1005D000A022A80000000000A022A900A001200085
:1005E0000C0009004F1078004F0078003600F90029
:0805F0003400F9000040060090
:0200000401F009
:1C000000048300003F000000B38700000F3100000F3300000700000003C0000098
:00000001FF
